{
  "_format": "hh-sol-artifact-1",
  "contractName": "MyNFTcollection",
  "sourceName": "contracts/MyNFTcollection.sol",
  "abi": [
    {
      "inputs": [
        {
          "internalType": "string",
          "name": "_name",
          "type": "string"
        },
        {
          "internalType": "string",
          "name": "_symbol",
          "type": "string"
        },
        {
          "internalType": "uint256",
          "name": "mintAmount",
          "type": "uint256"
        }
      ],
      "stateMutability": "nonpayable",
      "type": "constructor"
    },
    {
      "anonymous": false,
      "inputs": [
        {
          "indexed": true,
          "internalType": "address",
          "name": "owner",
          "type": "address"
        },
        {
          "indexed": true,
          "internalType": "address",
          "name": "approved",
          "type": "address"
        },
        {
          "indexed": true,
          "internalType": "uint256",
          "name": "tokenId",
          "type": "uint256"
        }
      ],
      "name": "Approval",
      "type": "event"
    },
    {
      "anonymous": false,
      "inputs": [
        {
          "indexed": true,
          "internalType": "address",
          "name": "owner",
          "type": "address"
        },
        {
          "indexed": true,
          "internalType": "address",
          "name": "operator",
          "type": "address"
        },
        {
          "indexed": false,
          "internalType": "bool",
          "name": "approved",
          "type": "bool"
        }
      ],
      "name": "ApprovalForAll",
      "type": "event"
    },
    {
      "anonymous": false,
      "inputs": [
        {
          "indexed": true,
          "internalType": "address",
          "name": "previousOwner",
          "type": "address"
        },
        {
          "indexed": true,
          "internalType": "address",
          "name": "newOwner",
          "type": "address"
        }
      ],
      "name": "OwnershipTransferred",
      "type": "event"
    },
    {
      "anonymous": false,
      "inputs": [
        {
          "indexed": true,
          "internalType": "address",
          "name": "from",
          "type": "address"
        },
        {
          "indexed": true,
          "internalType": "address",
          "name": "to",
          "type": "address"
        },
        {
          "indexed": true,
          "internalType": "uint256",
          "name": "tokenId",
          "type": "uint256"
        }
      ],
      "name": "Transfer",
      "type": "event"
    },
    {
      "anonymous": false,
      "inputs": [
        {
          "indexed": true,
          "internalType": "address",
          "name": "from",
          "type": "address"
        },
        {
          "indexed": false,
          "internalType": "uint256",
          "name": "amount",
          "type": "uint256"
        }
      ],
      "name": "nftMinted",
      "type": "event"
    },
    {
      "inputs": [
        {
          "internalType": "address",
          "name": "to",
          "type": "address"
        },
        {
          "internalType": "uint256",
          "name": "tokenId",
          "type": "uint256"
        }
      ],
      "name": "approve",
      "outputs": [],
      "stateMutability": "nonpayable",
      "type": "function"
    },
    {
      "inputs": [
        {
          "internalType": "address",
          "name": "owner",
          "type": "address"
        }
      ],
      "name": "balanceOf",
      "outputs": [
        {
          "internalType": "uint256",
          "name": "",
          "type": "uint256"
        }
      ],
      "stateMutability": "view",
      "type": "function"
    },
    {
      "inputs": [
        {
          "internalType": "uint256",
          "name": "tokenId",
          "type": "uint256"
        }
      ],
      "name": "getApproved",
      "outputs": [
        {
          "internalType": "address",
          "name": "",
          "type": "address"
        }
      ],
      "stateMutability": "view",
      "type": "function"
    },
    {
      "inputs": [
        {
          "internalType": "address",
          "name": "owner",
          "type": "address"
        },
        {
          "internalType": "address",
          "name": "operator",
          "type": "address"
        }
      ],
      "name": "isApprovedForAll",
      "outputs": [
        {
          "internalType": "bool",
          "name": "",
          "type": "bool"
        }
      ],
      "stateMutability": "view",
      "type": "function"
    },
    {
      "inputs": [],
      "name": "maxSupply",
      "outputs": [
        {
          "internalType": "uint256",
          "name": "",
          "type": "uint256"
        }
      ],
      "stateMutability": "view",
      "type": "function"
    },
    {
      "inputs": [
        {
          "internalType": "address",
          "name": "_to",
          "type": "address"
        },
        {
          "internalType": "uint256",
          "name": "_mintAmount",
          "type": "uint256"
        }
      ],
      "name": "mint",
      "outputs": [],
      "stateMutability": "payable",
      "type": "function"
    },
    {
      "inputs": [],
      "name": "name",
      "outputs": [
        {
          "internalType": "string",
          "name": "",
          "type": "string"
        }
      ],
      "stateMutability": "view",
      "type": "function"
    },
    {
      "inputs": [],
      "name": "owner",
      "outputs": [
        {
          "internalType": "address",
          "name": "",
          "type": "address"
        }
      ],
      "stateMutability": "view",
      "type": "function"
    },
    {
      "inputs": [
        {
          "internalType": "uint256",
          "name": "tokenId",
          "type": "uint256"
        }
      ],
      "name": "ownerOf",
      "outputs": [
        {
          "internalType": "address",
          "name": "",
          "type": "address"
        }
      ],
      "stateMutability": "view",
      "type": "function"
    },
    {
      "inputs": [],
      "name": "renounceOwnership",
      "outputs": [],
      "stateMutability": "nonpayable",
      "type": "function"
    },
    {
      "inputs": [
        {
          "internalType": "address",
          "name": "from",
          "type": "address"
        },
        {
          "internalType": "address",
          "name": "to",
          "type": "address"
        },
        {
          "internalType": "uint256",
          "name": "tokenId",
          "type": "uint256"
        }
      ],
      "name": "safeTransferFrom",
      "outputs": [],
      "stateMutability": "nonpayable",
      "type": "function"
    },
    {
      "inputs": [
        {
          "internalType": "address",
          "name": "from",
          "type": "address"
        },
        {
          "internalType": "address",
          "name": "to",
          "type": "address"
        },
        {
          "internalType": "uint256",
          "name": "tokenId",
          "type": "uint256"
        },
        {
          "internalType": "bytes",
          "name": "data",
          "type": "bytes"
        }
      ],
      "name": "safeTransferFrom",
      "outputs": [],
      "stateMutability": "nonpayable",
      "type": "function"
    },
    {
      "inputs": [
        {
          "internalType": "address",
          "name": "operator",
          "type": "address"
        },
        {
          "internalType": "bool",
          "name": "approved",
          "type": "bool"
        }
      ],
      "name": "setApprovalForAll",
      "outputs": [],
      "stateMutability": "nonpayable",
      "type": "function"
    },
    {
      "inputs": [
        {
          "internalType": "bytes4",
          "name": "interfaceId",
          "type": "bytes4"
        }
      ],
      "name": "supportsInterface",
      "outputs": [
        {
          "internalType": "bool",
          "name": "",
          "type": "bool"
        }
      ],
      "stateMutability": "view",
      "type": "function"
    },
    {
      "inputs": [],
      "name": "symbol",
      "outputs": [
        {
          "internalType": "string",
          "name": "",
          "type": "string"
        }
      ],
      "stateMutability": "view",
      "type": "function"
    },
    {
      "inputs": [
        {
          "internalType": "uint256",
          "name": "index",
          "type": "uint256"
        }
      ],
      "name": "tokenByIndex",
      "outputs": [
        {
          "internalType": "uint256",
          "name": "",
          "type": "uint256"
        }
      ],
      "stateMutability": "view",
      "type": "function"
    },
    {
      "inputs": [
        {
          "internalType": "address",
          "name": "owner",
          "type": "address"
        },
        {
          "internalType": "uint256",
          "name": "index",
          "type": "uint256"
        }
      ],
      "name": "tokenOfOwnerByIndex",
      "outputs": [
        {
          "internalType": "uint256",
          "name": "",
          "type": "uint256"
        }
      ],
      "stateMutability": "view",
      "type": "function"
    },
    {
      "inputs": [
        {
          "internalType": "uint256",
          "name": "tokenId",
          "type": "uint256"
        }
      ],
      "name": "tokenURI",
      "outputs": [
        {
          "internalType": "string",
          "name": "",
          "type": "string"
        }
      ],
      "stateMutability": "view",
      "type": "function"
    },
    {
      "inputs": [
        {
          "internalType": "uint256",
          "name": "tokenid",
          "type": "uint256"
        }
      ],
      "name": "tokenUri",
      "outputs": [
        {
          "internalType": "string",
          "name": "",
          "type": "string"
        }
      ],
      "stateMutability": "pure",
      "type": "function"
    },
    {
      "inputs": [],
      "name": "totalSupply",
      "outputs": [
        {
          "internalType": "uint256",
          "name": "",
          "type": "uint256"
        }
      ],
      "stateMutability": "view",
      "type": "function"
    },
    {
      "inputs": [
        {
          "internalType": "address",
          "name": "from",
          "type": "address"
        },
        {
          "internalType": "address",
          "name": "to",
          "type": "address"
        },
        {
          "internalType": "uint256",
          "name": "tokenId",
          "type": "uint256"
        }
      ],
      "name": "transferFrom",
      "outputs": [],
      "stateMutability": "nonpayable",
      "type": "function"
    },
    {
      "inputs": [
        {
          "internalType": "address",
          "name": "newOwner",
          "type": "address"
        }
      ],
      "name": "transferOwnership",
      "outputs": [],
      "stateMutability": "nonpayable",
      "type": "function"
    },
    {
      "inputs": [
        {
          "internalType": "address",
          "name": "_owner",
          "type": "address"
        }
      ],
      "name": "walletOfOwner",
      "outputs": [
        {
          "internalType": "uint256[]",
          "name": "",
          "type": "uint256[]"
        }
      ],
      "stateMutability": "view",
      "type": "function"
    },
    {
      "inputs": [],
      "name": "withdraw",
      "outputs": [],
      "stateMutability": "payable",
      "type": "function"
    }
  ],
  "bytecode": "0x60806040526064600b553480156200001657600080fd5b506040516200517e3803806200517e83398181016040528101906200003c919062000e00565b828281600090805190602001906200005692919062000c72565b5080600190805190602001906200006f92919062000c72565b5050506200009262000086620000ad60201b60201c565b620000b560201b60201c565b620000a433826200017b60201b60201c565b50505062001544565b600033905090565b6000600a60009054906101000a900473ffffffffffffffffffffffffffffffffffffffff16905081600a60006101000a81548173ffffffffffffffffffffffffffffffffffffffff021916908373ffffffffffffffffffffffffffffffffffffffff1602179055508173ffffffffffffffffffffffffffffffffffffffff168173ffffffffffffffffffffffffffffffffffffffff167f8be0079c531659141344cd1fd0a4f28419497f9722a3daafe3b4186f6b6457e060405160405180910390a35050565b60006200018d6200025460201b60201c565b9050600082116200019d57600080fd5b600b548282620001ae91906200111e565b1115620001ba57600080fd5b6000600190505b828111620001fe57620001e8848284620001dc91906200111e565b6200026160201b60201c565b8080620001f590620012c2565b915050620001c1565b503373ffffffffffffffffffffffffffffffffffffffff167fbbedd439cfe8aa51324de58375e6ffccc4ac766d72b9aaeb8a0e4960923ea4168360405162000247919062001075565b60405180910390a2505050565b6000600880549050905090565b620002838282604051806020016040528060008152506200028760201b60201c565b5050565b620002998383620002f560201b60201c565b620002ae6000848484620004ef60201b60201c565b620002f0576040517f08c379a0000000000000000000000000000000000000000000000000000000008152600401620002e79062000fed565b60405180910390fd5b505050565b600073ffffffffffffffffffffffffffffffffffffffff168273ffffffffffffffffffffffffffffffffffffffff16141562000368576040517f08c379a00000000000000000000000000000000000000000000000000000000081526004016200035f9062001053565b60405180910390fd5b6200037981620006a960201b60201c565b15620003bc576040517f08c379a0000000000000000000000000000000000000000000000000000000008152600401620003b3906200100f565b60405180910390fd5b620003d0600083836200071560201b60201c565b6001600360008473ffffffffffffffffffffffffffffffffffffffff1673ffffffffffffffffffffffffffffffffffffffff16815260200190815260200160002060008282546200042291906200111e565b92505081905550816002600083815260200190815260200160002060006101000a81548173ffffffffffffffffffffffffffffffffffffffff021916908373ffffffffffffffffffffffffffffffffffffffff160217905550808273ffffffffffffffffffffffffffffffffffffffff16600073ffffffffffffffffffffffffffffffffffffffff167fddf252ad1be2c89b69c2b068fc378daa952ba7f163c4a11628f55a4df523b3ef60405160405180910390a4620004eb600083836200085c60201b60201c565b5050565b60006200051d8473ffffffffffffffffffffffffffffffffffffffff166200086160201b6200109d1760201c565b156200069c578373ffffffffffffffffffffffffffffffffffffffff1663150b7a026200054f620000ad60201b60201c565b8786866040518563ffffffff1660e01b815260040162000573949392919062000f99565b602060405180830381600087803b1580156200058e57600080fd5b505af1925050508015620005c257506040513d601f19601f82011682018060405250810190620005bf919062000dce565b60015b6200064b573d8060008114620005f5576040519150601f19603f3d011682016040523d82523d6000602084013e620005fa565b606091505b5060008151141562000643576040517f08c379a00000000000000000000000000000000000000000000000000000000081526004016200063a9062000fed565b60405180910390fd5b805181602001fd5b63150b7a0260e01b7bffffffffffffffffffffffffffffffffffffffffffffffffffffffff1916817bffffffffffffffffffffffffffffffffffffffffffffffffffffffff191614915050620006a1565b600190505b949350505050565b60008073ffffffffffffffffffffffffffffffffffffffff166002600084815260200190815260200160002060009054906101000a900473ffffffffffffffffffffffffffffffffffffffff1673ffffffffffffffffffffffffffffffffffffffff1614159050919050565b6200072d8383836200088460201b620010c01760201c565b600073ffffffffffffffffffffffffffffffffffffffff168373ffffffffffffffffffffffffffffffffffffffff1614156200077a5762000774816200088960201b60201c565b620007c2565b8173ffffffffffffffffffffffffffffffffffffffff168373ffffffffffffffffffffffffffffffffffffffff1614620007c157620007c08382620008d260201b60201c565b5b5b600073ffffffffffffffffffffffffffffffffffffffff168273ffffffffffffffffffffffffffffffffffffffff1614156200080f57620008098162000a4f60201b60201c565b62000857565b8273ffffffffffffffffffffffffffffffffffffffff168273ffffffffffffffffffffffffffffffffffffffff1614620008565762000855828262000b2b60201b60201c565b5b5b505050565b505050565b6000808273ffffffffffffffffffffffffffffffffffffffff163b119050919050565b505050565b6008805490506009600083815260200190815260200160002081905550600881908060018154018082558091505060019003906000526020600020016000909190919091505550565b60006001620008ec8462000bb760201b62000d251760201c565b620008f891906200117b565b9050600060076000848152602001908152602001600020549050818114620009de576000600660008673ffffffffffffffffffffffffffffffffffffffff1673ffffffffffffffffffffffffffffffffffffffff168152602001908152602001600020600084815260200190815260200160002054905080600660008773ffffffffffffffffffffffffffffffffffffffff1673ffffffffffffffffffffffffffffffffffffffff168152602001908152602001600020600084815260200190815260200160002081905550816007600083815260200190815260200160002081905550505b6007600084815260200190815260200160002060009055600660008573ffffffffffffffffffffffffffffffffffffffff1673ffffffffffffffffffffffffffffffffffffffff16815260200190815260200160002060008381526020019081526020016000206000905550505050565b6000600160088054905062000a6591906200117b565b905060006009600084815260200190815260200160002054905060006008838154811062000a985762000a976200139d565b5b90600052602060002001549050806008838154811062000abd5762000abc6200139d565b5b90600052602060002001819055508160096000838152602001908152602001600020819055506009600085815260200190815260200160002060009055600880548062000b0f5762000b0e6200136e565b5b6001900381819060005260206000200160009055905550505050565b600062000b438362000bb760201b62000d251760201c565b905081600660008573ffffffffffffffffffffffffffffffffffffffff1673ffffffffffffffffffffffffffffffffffffffff168152602001908152602001600020600083815260200190815260200160002081905550806007600084815260200190815260200160002081905550505050565b60008073ffffffffffffffffffffffffffffffffffffffff168273ffffffffffffffffffffffffffffffffffffffff16141562000c2b576040517f08c379a000000000000000000000000000000000000000000000000000000000815260040162000c229062001031565b60405180910390fd5b600360008373ffffffffffffffffffffffffffffffffffffffff1673ffffffffffffffffffffffffffffffffffffffff168152602001908152602001600020549050919050565b82805462000c809062001256565b90600052602060002090601f01602090048101928262000ca4576000855562000cf0565b82601f1062000cbf57805160ff191683800117855562000cf0565b8280016001018555821562000cf0579182015b8281111562000cef57825182559160200191906001019062000cd2565b5b50905062000cff919062000d03565b5090565b5b8082111562000d1e57600081600090555060010162000d04565b5090565b600062000d3962000d3384620010bb565b62001092565b90508281526020810184848401111562000d585762000d5762001400565b5b62000d6584828562001220565b509392505050565b60008151905062000d7e8162001510565b92915050565b600082601f83011262000d9c5762000d9b620013fb565b5b815162000dae84826020860162000d22565b91505092915050565b60008151905062000dc8816200152a565b92915050565b60006020828403121562000de75762000de66200140a565b5b600062000df78482850162000d6d565b91505092915050565b60008060006060848603121562000e1c5762000e1b6200140a565b5b600084015167ffffffffffffffff81111562000e3d5762000e3c62001405565b5b62000e4b8682870162000d84565b935050602084015167ffffffffffffffff81111562000e6f5762000e6e62001405565b5b62000e7d8682870162000d84565b925050604062000e908682870162000db7565b9150509250925092565b62000ea581620011b6565b82525050565b600062000eb882620010f1565b62000ec48185620010fc565b935062000ed681856020860162001220565b62000ee1816200140f565b840191505092915050565b600062000efb6032836200110d565b915062000f088262001420565b604082019050919050565b600062000f22601c836200110d565b915062000f2f826200146f565b602082019050919050565b600062000f496029836200110d565b915062000f568262001498565b604082019050919050565b600062000f706020836200110d565b915062000f7d82620014e7565b602082019050919050565b62000f938162001216565b82525050565b600060808201905062000fb0600083018762000e9a565b62000fbf602083018662000e9a565b62000fce604083018562000f88565b818103606083015262000fe2818462000eab565b905095945050505050565b60006020820190508181036000830152620010088162000eec565b9050919050565b600060208201905081810360008301526200102a8162000f13565b9050919050565b600060208201905081810360008301526200104c8162000f3a565b9050919050565b600060208201905081810360008301526200106e8162000f61565b9050919050565b60006020820190506200108c600083018462000f88565b92915050565b60006200109e620010b1565b9050620010ac82826200128c565b919050565b6000604051905090565b600067ffffffffffffffff821115620010d957620010d8620013cc565b5b620010e4826200140f565b9050602081019050919050565b600081519050919050565b600082825260208201905092915050565b600082825260208201905092915050565b60006200112b8262001216565b9150620011388362001216565b9250827fffffffffffffffffffffffffffffffffffffffffffffffffffffffffffffffff0382111562001170576200116f62001310565b5b828201905092915050565b6000620011888262001216565b9150620011958362001216565b925082821015620011ab57620011aa62001310565b5b828203905092915050565b6000620011c382620011f6565b9050919050565b60007fffffffff0000000000000000000000000000000000000000000000000000000082169050919050565b600073ffffffffffffffffffffffffffffffffffffffff82169050919050565b6000819050919050565b60005b838110156200124057808201518184015260208101905062001223565b8381111562001250576000848401525b50505050565b600060028204905060018216806200126f57607f821691505b602082108114156200128657620012856200133f565b5b50919050565b62001297826200140f565b810181811067ffffffffffffffff82111715620012b957620012b8620013cc565b5b80604052505050565b6000620012cf8262001216565b91507fffffffffffffffffffffffffffffffffffffffffffffffffffffffffffffffff82141562001305576200130462001310565b5b600182019050919050565b7f4e487b7100000000000000000000000000000000000000000000000000000000600052601160045260246000fd5b7f4e487b7100000000000000000000000000000000000000000000000000000000600052602260045260246000fd5b7f4e487b7100000000000000000000000000000000000000000000000000000000600052603160045260246000fd5b7f4e487b7100000000000000000000000000000000000000000000000000000000600052603260045260246000fd5b7f4e487b7100000000000000000000000000000000000000000000000000000000600052604160045260246000fd5b600080fd5b600080fd5b600080fd5b600080fd5b6000601f19601f8301169050919050565b7f4552433732313a207472616e7366657220746f206e6f6e20455243373231526560008201527f63656976657220696d706c656d656e7465720000000000000000000000000000602082015250565b7f4552433732313a20746f6b656e20616c7265616479206d696e74656400000000600082015250565b7f4552433732313a2061646472657373207a65726f206973206e6f74206120766160008201527f6c6964206f776e65720000000000000000000000000000000000000000000000602082015250565b7f4552433732313a206d696e7420746f20746865207a65726f2061646472657373600082015250565b6200151b81620011ca565b81146200152757600080fd5b50565b620015358162001216565b81146200154157600080fd5b50565b613c2a80620015546000396000f3fe60806040526004361061014b5760003560e01c80634f6ccce7116100b6578063a22cb4651161006f578063a22cb4651461049c578063b88d4fde146104c5578063c87b56dd146104ee578063d5abeb011461052b578063e985e9c514610556578063f2fde38b146105935761014b565b80634f6ccce7146103785780636352211e146103b557806370a08231146103f2578063715018a61461042f5780638da5cb5b1461044657806395d89b41146104715761014b565b806323b872dd1161010857806323b872dd146102865780632f745c59146102af5780633ccfd60b146102ec57806340c10f19146102f657806342842e0e14610312578063438b63001461033b5761014b565b806301ffc9a71461015057806306fdde031461018d578063081812fc146101b8578063095ea7b3146101f55780631675f4551461021e57806318160ddd1461025b575b600080fd5b34801561015c57600080fd5b5061017760048036038101906101729190612730565b6105bc565b6040516101849190612d70565b60405180910390f35b34801561019957600080fd5b506101a2610636565b6040516101af9190612d8b565b60405180910390f35b3480156101c457600080fd5b506101df60048036038101906101da919061278a565b6106c8565b6040516101ec9190612ce7565b60405180910390f35b34801561020157600080fd5b5061021c600480360381019061021791906126f0565b61070e565b005b34801561022a57600080fd5b506102456004803603810190610240919061278a565b610826565b6040516102529190612d8b565b60405180910390f35b34801561026757600080fd5b506102706108e4565b60405161027d9190612fad565b60405180910390f35b34801561029257600080fd5b506102ad60048036038101906102a891906125da565b6108f1565b005b3480156102bb57600080fd5b506102d660048036038101906102d191906126f0565b610951565b6040516102e39190612fad565b60405180910390f35b6102f46109f6565b005b610310600480360381019061030b91906126f0565b610a77565b005b34801561031e57600080fd5b50610339600480360381019061033491906125da565b610b34565b005b34801561034757600080fd5b50610362600480360381019061035d919061256d565b610b54565b60405161036f9190612d4e565b60405180910390f35b34801561038457600080fd5b5061039f600480360381019061039a919061278a565b610c02565b6040516103ac9190612fad565b60405180910390f35b3480156103c157600080fd5b506103dc60048036038101906103d7919061278a565b610c73565b6040516103e99190612ce7565b60405180910390f35b3480156103fe57600080fd5b506104196004803603810190610414919061256d565b610d25565b6040516104269190612fad565b60405180910390f35b34801561043b57600080fd5b50610444610ddd565b005b34801561045257600080fd5b5061045b610df1565b6040516104689190612ce7565b60405180910390f35b34801561047d57600080fd5b50610486610e1b565b6040516104939190612d8b565b60405180910390f35b3480156104a857600080fd5b506104c360048036038101906104be91906126b0565b610ead565b005b3480156104d157600080fd5b506104ec60048036038101906104e7919061262d565b610ec3565b005b3480156104fa57600080fd5b506105156004803603810190610510919061278a565b610f25565b6040516105229190612d8b565b60405180910390f35b34801561053757600080fd5b50610540610f7f565b60405161054d9190612fad565b60405180910390f35b34801561056257600080fd5b5061057d6004803603810190610578919061259a565b610f85565b60405161058a9190612d70565b60405180910390f35b34801561059f57600080fd5b506105ba60048036038101906105b5919061256d565b611019565b005b60007f780e9d63000000000000000000000000000000000000000000000000000000007bffffffffffffffffffffffffffffffffffffffffffffffffffffffff1916827bffffffffffffffffffffffffffffffffffffffffffffffffffffffff1916148061062f575061062e826110c5565b5b9050919050565b60606000805461064590613270565b80601f016020809104026020016040519081016040528092919081815260200182805461067190613270565b80156106be5780601f10610693576101008083540402835291602001916106be565b820191906000526020600020905b8154815290600101906020018083116106a157829003601f168201915b5050505050905090565b60006106d3826111a7565b6004600083815260200190815260200160002060009054906101000a900473ffffffffffffffffffffffffffffffffffffffff169050919050565b600061071982610c73565b90508073ffffffffffffffffffffffffffffffffffffffff168373ffffffffffffffffffffffffffffffffffffffff16141561078a576040517f08c379a000000000000000000000000000000000000000000000000000000000815260040161078190612f4d565b60405180910390fd5b8073ffffffffffffffffffffffffffffffffffffffff166107a96111f2565b73ffffffffffffffffffffffffffffffffffffffff1614806107d857506107d7816107d26111f2565b610f85565b5b610817576040517f08c379a000000000000000000000000000000000000000000000000000000000815260040161080e90612ead565b60405180910390fd5b61082183836111fa565b505050565b6060600060405180610160016040528061012f8152602001613a8661012f91399050600081610854856112b3565b604051602001610865929190612c31565b604051602081830303815290604052905060006108b2610884866112b3565b61088d84611414565b60405160200161089e929190612c6b565b604051602081830303815290604052611414565b90506000816040516020016108c79190612cb0565b604051602081830303815290604052905080945050505050919050565b6000600880549050905090565b6109026108fc6111f2565b826115ac565b610941576040517f08c379a000000000000000000000000000000000000000000000000000000000815260040161093890612f8d565b60405180910390fd5b61094c838383611641565b505050565b600061095c83610d25565b821061099d576040517f08c379a000000000000000000000000000000000000000000000000000000000815260040161099490612dad565b60405180910390fd5b600660008473ffffffffffffffffffffffffffffffffffffffff1673ffffffffffffffffffffffffffffffffffffffff168152602001908152602001600020600083815260200190815260200160002054905092915050565b6109fe6118a8565b60003373ffffffffffffffffffffffffffffffffffffffff1647604051610a2490612cd2565b60006040518083038185875af1925050503d8060008114610a61576040519150601f19603f3d011682016040523d82523d6000602084013e610a66565b606091505b5050905080610a7457600080fd5b50565b6000610a816108e4565b905060008211610a9057600080fd5b600b548282610a9f91906130a5565b1115610aaa57600080fd5b6000600190505b828111610ae057610acd848284610ac891906130a5565b611926565b8080610ad8906132d3565b915050610ab1565b503373ffffffffffffffffffffffffffffffffffffffff167fbbedd439cfe8aa51324de58375e6ffccc4ac766d72b9aaeb8a0e4960923ea41683604051610b279190612fad565b60405180910390a2505050565b610b4f83838360405180602001604052806000815250610ec3565b505050565b60606000610b6183610d25565b905060008167ffffffffffffffff811115610b7f57610b7e613438565b5b604051908082528060200260200182016040528015610bad5781602001602082028036833780820191505090505b50905060005b82811015610bf757610bc58582610951565b828281518110610bd857610bd7613409565b5b6020026020010181815250508080610bef906132d3565b915050610bb3565b508092505050919050565b6000610c0c6108e4565b8210610c4d576040517f08c379a0000000000000000000000000000000000000000000000000000000008152600401610c4490612f6d565b60405180910390fd5b60088281548110610c6157610c60613409565b5b90600052602060002001549050919050565b6000806002600084815260200190815260200160002060009054906101000a900473ffffffffffffffffffffffffffffffffffffffff169050600073ffffffffffffffffffffffffffffffffffffffff168173ffffffffffffffffffffffffffffffffffffffff161415610d1c576040517f08c379a0000000000000000000000000000000000000000000000000000000008152600401610d1390612f2d565b60405180910390fd5b80915050919050565b60008073ffffffffffffffffffffffffffffffffffffffff168273ffffffffffffffffffffffffffffffffffffffff161415610d96576040517f08c379a0000000000000000000000000000000000000000000000000000000008152600401610d8d90612e8d565b60405180910390fd5b600360008373ffffffffffffffffffffffffffffffffffffffff1673ffffffffffffffffffffffffffffffffffffffff168152602001908152602001600020549050919050565b610de56118a8565b610def6000611944565b565b6000600a60009054906101000a900473ffffffffffffffffffffffffffffffffffffffff16905090565b606060018054610e2a90613270565b80601f0160208091040260200160405190810160405280929190818152602001828054610e5690613270565b8015610ea35780601f10610e7857610100808354040283529160200191610ea3565b820191906000526020600020905b815481529060010190602001808311610e8657829003601f168201915b5050505050905090565b610ebf610eb86111f2565b8383611a0a565b5050565b610ed4610ece6111f2565b836115ac565b610f13576040517f08c379a0000000000000000000000000000000000000000000000000000000008152600401610f0a90612f8d565b60405180910390fd5b610f1f84848484611b77565b50505050565b6060610f3082611bd3565b610f6f576040517f08c379a0000000000000000000000000000000000000000000000000000000008152600401610f6690612f0d565b60405180910390fd5b610f7882610826565b9050919050565b600b5481565b6000600560008473ffffffffffffffffffffffffffffffffffffffff1673ffffffffffffffffffffffffffffffffffffffff16815260200190815260200160002060008373ffffffffffffffffffffffffffffffffffffffff1673ffffffffffffffffffffffffffffffffffffffff16815260200190815260200160002060009054906101000a900460ff16905092915050565b6110216118a8565b600073ffffffffffffffffffffffffffffffffffffffff168173ffffffffffffffffffffffffffffffffffffffff161415611091576040517f08c379a000000000000000000000000000000000000000000000000000000000815260040161108890612ded565b60405180910390fd5b61109a81611944565b50565b6000808273ffffffffffffffffffffffffffffffffffffffff163b119050919050565b505050565b60007f80ac58cd000000000000000000000000000000000000000000000000000000007bffffffffffffffffffffffffffffffffffffffffffffffffffffffff1916827bffffffffffffffffffffffffffffffffffffffffffffffffffffffff1916148061119057507f5b5e139f000000000000000000000000000000000000000000000000000000007bffffffffffffffffffffffffffffffffffffffffffffffffffffffff1916827bffffffffffffffffffffffffffffffffffffffffffffffffffffffff1916145b806111a0575061119f82611c3f565b5b9050919050565b6111b081611bd3565b6111ef576040517f08c379a00000000000000000000000000000000000000000000000000000000081526004016111e690612f2d565b60405180910390fd5b50565b600033905090565b816004600083815260200190815260200160002060006101000a81548173ffffffffffffffffffffffffffffffffffffffff021916908373ffffffffffffffffffffffffffffffffffffffff160217905550808273ffffffffffffffffffffffffffffffffffffffff1661126d83610c73565b73ffffffffffffffffffffffffffffffffffffffff167f8c5be1e5ebec7d5bd14f71427d1e84f3dd0314c0f7b2291e5b200ac8c7c3b92560405160405180910390a45050565b606060008214156112fb576040518060400160405280600181526020017f3000000000000000000000000000000000000000000000000000000000000000815250905061140f565b600082905060005b6000821461132d578080611316906132d3565b915050600a8261132691906130fb565b9150611303565b60008167ffffffffffffffff81111561134957611348613438565b5b6040519080825280601f01601f19166020018201604052801561137b5781602001600182028036833780820191505090505b5090505b60008514611408576001826113949190613186565b9150600a856113a3919061331c565b60306113af91906130a5565b60f81b8183815181106113c5576113c4613409565b5b60200101907effffffffffffffffffffffffffffffffffffffffffffffffffffffffffffff1916908160001a905350600a8561140191906130fb565b945061137f565b8093505050505b919050565b6060600082519050600081141561143d57604051806020016040528060008152509150506115a7565b6000600360028361144e91906130a5565b61145891906130fb565b6004611464919061312c565b9050600060208261147591906130a5565b67ffffffffffffffff81111561148e5761148d613438565b5b6040519080825280601f01601f1916602001820160405280156114c05781602001600182028036833780820191505090505b5090506000604051806060016040528060408152602001613bb5604091399050600181016020830160005b868110156115645760038101905062ffffff818a015116603f8160121c168401518060081b905060ff603f83600c1c1686015116810190508060081b905060ff603f8360061c1686015116810190508060081b905060ff603f831686015116810190508060e01b905080845260048401935050506114eb565b50600386066001811461157e576002811461158e57611599565b613d3d60f01b6002830352611599565b603d60f81b60018303525b508484525050819450505050505b919050565b6000806115b883610c73565b90508073ffffffffffffffffffffffffffffffffffffffff168473ffffffffffffffffffffffffffffffffffffffff1614806115fa57506115f98185610f85565b5b8061163857508373ffffffffffffffffffffffffffffffffffffffff16611620846106c8565b73ffffffffffffffffffffffffffffffffffffffff16145b91505092915050565b8273ffffffffffffffffffffffffffffffffffffffff1661166182610c73565b73ffffffffffffffffffffffffffffffffffffffff16146116b7576040517f08c379a00000000000000000000000000000000000000000000000000000000081526004016116ae90612e0d565b60405180910390fd5b600073ffffffffffffffffffffffffffffffffffffffff168273ffffffffffffffffffffffffffffffffffffffff161415611727576040517f08c379a000000000000000000000000000000000000000000000000000000000815260040161171e90612e4d565b60405180910390fd5b611732838383611ca9565b61173d6000826111fa565b6001600360008573ffffffffffffffffffffffffffffffffffffffff1673ffffffffffffffffffffffffffffffffffffffff168152602001908152602001600020600082825461178d9190613186565b925050819055506001600360008473ffffffffffffffffffffffffffffffffffffffff1673ffffffffffffffffffffffffffffffffffffffff16815260200190815260200160002060008282546117e491906130a5565b92505081905550816002600083815260200190815260200160002060006101000a81548173ffffffffffffffffffffffffffffffffffffffff021916908373ffffffffffffffffffffffffffffffffffffffff160217905550808273ffffffffffffffffffffffffffffffffffffffff168473ffffffffffffffffffffffffffffffffffffffff167fddf252ad1be2c89b69c2b068fc378daa952ba7f163c4a11628f55a4df523b3ef60405160405180910390a46118a3838383611dbd565b505050565b6118b06111f2565b73ffffffffffffffffffffffffffffffffffffffff166118ce610df1565b73ffffffffffffffffffffffffffffffffffffffff1614611924576040517f08c379a000000000000000000000000000000000000000000000000000000000815260040161191b90612eed565b60405180910390fd5b565b611940828260405180602001604052806000815250611dc2565b5050565b6000600a60009054906101000a900473ffffffffffffffffffffffffffffffffffffffff16905081600a60006101000a81548173ffffffffffffffffffffffffffffffffffffffff021916908373ffffffffffffffffffffffffffffffffffffffff1602179055508173ffffffffffffffffffffffffffffffffffffffff168173ffffffffffffffffffffffffffffffffffffffff167f8be0079c531659141344cd1fd0a4f28419497f9722a3daafe3b4186f6b6457e060405160405180910390a35050565b8173ffffffffffffffffffffffffffffffffffffffff168373ffffffffffffffffffffffffffffffffffffffff161415611a79576040517f08c379a0000000000000000000000000000000000000000000000000000000008152600401611a7090612e6d565b60405180910390fd5b80600560008573ffffffffffffffffffffffffffffffffffffffff1673ffffffffffffffffffffffffffffffffffffffff16815260200190815260200160002060008473ffffffffffffffffffffffffffffffffffffffff1673ffffffffffffffffffffffffffffffffffffffff16815260200190815260200160002060006101000a81548160ff0219169083151502179055508173ffffffffffffffffffffffffffffffffffffffff168373ffffffffffffffffffffffffffffffffffffffff167f17307eab39ab6107e8899845ad3d59bd9653f200f220920489ca2b5937696c3183604051611b6a9190612d70565b60405180910390a3505050565b611b82848484611641565b611b8e84848484611e1d565b611bcd576040517f08c379a0000000000000000000000000000000000000000000000000000000008152600401611bc490612dcd565b60405180910390fd5b50505050565b60008073ffffffffffffffffffffffffffffffffffffffff166002600084815260200190815260200160002060009054906101000a900473ffffffffffffffffffffffffffffffffffffffff1673ffffffffffffffffffffffffffffffffffffffff1614159050919050565b60007f01ffc9a7000000000000000000000000000000000000000000000000000000007bffffffffffffffffffffffffffffffffffffffffffffffffffffffff1916827bffffffffffffffffffffffffffffffffffffffffffffffffffffffff1916149050919050565b611cb48383836110c0565b600073ffffffffffffffffffffffffffffffffffffffff168373ffffffffffffffffffffffffffffffffffffffff161415611cf757611cf281611fb4565b611d36565b8173ffffffffffffffffffffffffffffffffffffffff168373ffffffffffffffffffffffffffffffffffffffff1614611d3557611d348382611ffd565b5b5b600073ffffffffffffffffffffffffffffffffffffffff168273ffffffffffffffffffffffffffffffffffffffff161415611d7957611d748161216a565b611db8565b8273ffffffffffffffffffffffffffffffffffffffff168273ffffffffffffffffffffffffffffffffffffffff1614611db757611db6828261223b565b5b5b505050565b505050565b611dcc83836122ba565b611dd96000848484611e1d565b611e18576040517f08c379a0000000000000000000000000000000000000000000000000000000008152600401611e0f90612dcd565b60405180910390fd5b505050565b6000611e3e8473ffffffffffffffffffffffffffffffffffffffff1661109d565b15611fa7578373ffffffffffffffffffffffffffffffffffffffff1663150b7a02611e676111f2565b8786866040518563ffffffff1660e01b8152600401611e899493929190612d02565b602060405180830381600087803b158015611ea357600080fd5b505af1925050508015611ed457506040513d601f19601f82011682018060405250810190611ed1919061275d565b60015b611f57573d8060008114611f04576040519150601f19603f3d011682016040523d82523d6000602084013e611f09565b606091505b50600081511415611f4f576040517f08c379a0000000000000000000000000000000000000000000000000000000008152600401611f4690612dcd565b60405180910390fd5b805181602001fd5b63150b7a0260e01b7bffffffffffffffffffffffffffffffffffffffffffffffffffffffff1916817bffffffffffffffffffffffffffffffffffffffffffffffffffffffff191614915050611fac565b600190505b949350505050565b6008805490506009600083815260200190815260200160002081905550600881908060018154018082558091505060019003906000526020600020016000909190919091505550565b6000600161200a84610d25565b6120149190613186565b90506000600760008481526020019081526020016000205490508181146120f9576000600660008673ffffffffffffffffffffffffffffffffffffffff1673ffffffffffffffffffffffffffffffffffffffff168152602001908152602001600020600084815260200190815260200160002054905080600660008773ffffffffffffffffffffffffffffffffffffffff1673ffffffffffffffffffffffffffffffffffffffff168152602001908152602001600020600084815260200190815260200160002081905550816007600083815260200190815260200160002081905550505b6007600084815260200190815260200160002060009055600660008573ffffffffffffffffffffffffffffffffffffffff1673ffffffffffffffffffffffffffffffffffffffff16815260200190815260200160002060008381526020019081526020016000206000905550505050565b6000600160088054905061217e9190613186565b90506000600960008481526020019081526020016000205490506000600883815481106121ae576121ad613409565b5b9060005260206000200154905080600883815481106121d0576121cf613409565b5b90600052602060002001819055508160096000838152602001908152602001600020819055506009600085815260200190815260200160002060009055600880548061221f5761221e6133da565b5b6001900381819060005260206000200160009055905550505050565b600061224683610d25565b905081600660008573ffffffffffffffffffffffffffffffffffffffff1673ffffffffffffffffffffffffffffffffffffffff168152602001908152602001600020600083815260200190815260200160002081905550806007600084815260200190815260200160002081905550505050565b600073ffffffffffffffffffffffffffffffffffffffff168273ffffffffffffffffffffffffffffffffffffffff16141561232a576040517f08c379a000000000000000000000000000000000000000000000000000000000815260040161232190612ecd565b60405180910390fd5b61233381611bd3565b15612373576040517f08c379a000000000000000000000000000000000000000000000000000000000815260040161236a90612e2d565b60405180910390fd5b61237f60008383611ca9565b6001600360008473ffffffffffffffffffffffffffffffffffffffff1673ffffffffffffffffffffffffffffffffffffffff16815260200190815260200160002060008282546123cf91906130a5565b92505081905550816002600083815260200190815260200160002060006101000a81548173ffffffffffffffffffffffffffffffffffffffff021916908373ffffffffffffffffffffffffffffffffffffffff160217905550808273ffffffffffffffffffffffffffffffffffffffff16600073ffffffffffffffffffffffffffffffffffffffff167fddf252ad1be2c89b69c2b068fc378daa952ba7f163c4a11628f55a4df523b3ef60405160405180910390a461249060008383611dbd565b5050565b60006124a76124a284612fed565b612fc8565b9050828152602081018484840111156124c3576124c261346c565b5b6124ce84828561322e565b509392505050565b6000813590506124e581613a29565b92915050565b6000813590506124fa81613a40565b92915050565b60008135905061250f81613a57565b92915050565b60008151905061252481613a57565b92915050565b600082601f83011261253f5761253e613467565b5b813561254f848260208601612494565b91505092915050565b60008135905061256781613a6e565b92915050565b60006020828403121561258357612582613476565b5b6000612591848285016124d6565b91505092915050565b600080604083850312156125b1576125b0613476565b5b60006125bf858286016124d6565b92505060206125d0858286016124d6565b9150509250929050565b6000806000606084860312156125f3576125f2613476565b5b6000612601868287016124d6565b9350506020612612868287016124d6565b925050604061262386828701612558565b9150509250925092565b6000806000806080858703121561264757612646613476565b5b6000612655878288016124d6565b9450506020612666878288016124d6565b935050604061267787828801612558565b925050606085013567ffffffffffffffff81111561269857612697613471565b5b6126a48782880161252a565b91505092959194509250565b600080604083850312156126c7576126c6613476565b5b60006126d5858286016124d6565b92505060206126e6858286016124eb565b9150509250929050565b6000806040838503121561270757612706613476565b5b6000612715858286016124d6565b925050602061272685828601612558565b9150509250929050565b60006020828403121561274657612745613476565b5b600061275484828501612500565b91505092915050565b60006020828403121561277357612772613476565b5b600061278184828501612515565b91505092915050565b6000602082840312156127a05761279f613476565b5b60006127ae84828501612558565b91505092915050565b60006127c38383612c13565b60208301905092915050565b6127d8816131ba565b82525050565b60006127e98261302e565b6127f3818561305c565b93506127fe8361301e565b8060005b8381101561282f57815161281688826127b7565b97506128218361304f565b925050600181019050612802565b5085935050505092915050565b612845816131cc565b82525050565b600061285682613039565b612860818561306d565b935061287081856020860161323d565b6128798161347b565b840191505092915050565b600061288f82613044565b6128998185613089565b93506128a981856020860161323d565b6128b28161347b565b840191505092915050565b60006128c882613044565b6128d2818561309a565b93506128e281856020860161323d565b80840191505092915050565b60006128fb602b83613089565b91506129068261348c565b604082019050919050565b600061291e603283613089565b9150612929826134db565b604082019050919050565b6000612941602683613089565b915061294c8261352a565b604082019050919050565b6000612964602583613089565b915061296f82613579565b604082019050919050565b6000612987601c83613089565b9150612992826135c8565b602082019050919050565b60006129aa602483613089565b91506129b5826135f1565b604082019050919050565b60006129cd601983613089565b91506129d882613640565b602082019050919050565b60006129f0600d8361309a565b91506129fb82613669565b600d82019050919050565b6000612a1360078361309a565b9150612a1e82613692565b600782019050919050565b6000612a36602983613089565b9150612a41826136bb565b604082019050919050565b6000612a5960028361309a565b9150612a648261370a565b600282019050919050565b6000612a7c603e83613089565b9150612a8782613733565b604082019050919050565b6000612a9f602083613089565b9150612aaa82613782565b602082019050919050565b6000612ac2602083613089565b9150612acd826137ab565b602082019050919050565b6000612ae5602f83613089565b9150612af0826137d4565b604082019050919050565b6000612b08600a8361309a565b9150612b1382613823565b600a82019050919050565b6000612b2b601883613089565b9150612b368261384c565b602082019050919050565b6000612b4e602183613089565b9150612b5982613875565b604082019050919050565b6000612b71601d8361309a565b9150612b7c826138c4565b601d82019050919050565b6000612b9460008361307e565b9150612b9f826138ed565b600082019050919050565b6000612bb7602c83613089565b9150612bc2826138f0565b604082019050919050565b6000612bda60638361309a565b9150612be58261393f565b606382019050919050565b6000612bfd602e83613089565b9150612c08826139da565b604082019050919050565b612c1c81613224565b82525050565b612c2b81613224565b82525050565b6000612c3d82856128bd565b9150612c4882612a06565b9150612c5482846128bd565b9150612c5f826129e3565b91508190509392505050565b6000612c7682612afb565b9150612c8282856128bd565b9150612c8d82612bcd565b9150612c9982846128bd565b9150612ca482612a4c565b91508190509392505050565b6000612cbb82612b64565b9150612cc782846128bd565b915081905092915050565b6000612cdd82612b87565b9150819050919050565b6000602082019050612cfc60008301846127cf565b92915050565b6000608082019050612d1760008301876127cf565b612d2460208301866127cf565b612d316040830185612c22565b8181036060830152612d43818461284b565b905095945050505050565b60006020820190508181036000830152612d6881846127de565b905092915050565b6000602082019050612d85600083018461283c565b92915050565b60006020820190508181036000830152612da58184612884565b905092915050565b60006020820190508181036000830152612dc6816128ee565b9050919050565b60006020820190508181036000830152612de681612911565b9050919050565b60006020820190508181036000830152612e0681612934565b9050919050565b60006020820190508181036000830152612e2681612957565b9050919050565b60006020820190508181036000830152612e468161297a565b9050919050565b60006020820190508181036000830152612e668161299d565b9050919050565b60006020820190508181036000830152612e86816129c0565b9050919050565b60006020820190508181036000830152612ea681612a29565b9050919050565b60006020820190508181036000830152612ec681612a6f565b9050919050565b60006020820190508181036000830152612ee681612a92565b9050919050565b60006020820190508181036000830152612f0681612ab5565b9050919050565b60006020820190508181036000830152612f2681612ad8565b9050919050565b60006020820190508181036000830152612f4681612b1e565b9050919050565b60006020820190508181036000830152612f6681612b41565b9050919050565b60006020820190508181036000830152612f8681612baa565b9050919050565b60006020820190508181036000830152612fa681612bf0565b9050919050565b6000602082019050612fc26000830184612c22565b92915050565b6000612fd2612fe3565b9050612fde82826132a2565b919050565b6000604051905090565b600067ffffffffffffffff82111561300857613007613438565b5b6130118261347b565b9050602081019050919050565b6000819050602082019050919050565b600081519050919050565b600081519050919050565b600081519050919050565b6000602082019050919050565b600082825260208201905092915050565b600082825260208201905092915050565b600081905092915050565b600082825260208201905092915050565b600081905092915050565b60006130b082613224565b91506130bb83613224565b9250827fffffffffffffffffffffffffffffffffffffffffffffffffffffffffffffffff038211156130f0576130ef61334d565b5b828201905092915050565b600061310682613224565b915061311183613224565b9250826131215761312061337c565b5b828204905092915050565b600061313782613224565b915061314283613224565b9250817fffffffffffffffffffffffffffffffffffffffffffffffffffffffffffffffff048311821515161561317b5761317a61334d565b5b828202905092915050565b600061319182613224565b915061319c83613224565b9250828210156131af576131ae61334d565b5b828203905092915050565b60006131c582613204565b9050919050565b60008115159050919050565b60007fffffffff0000000000000000000000000000000000000000000000000000000082169050919050565b600073ffffffffffffffffffffffffffffffffffffffff82169050919050565b6000819050919050565b82818337600083830152505050565b60005b8381101561325b578082015181840152602081019050613240565b8381111561326a576000848401525b50505050565b6000600282049050600182168061328857607f821691505b6020821081141561329c5761329b6133ab565b5b50919050565b6132ab8261347b565b810181811067ffffffffffffffff821117156132ca576132c9613438565b5b80604052505050565b60006132de82613224565b91507fffffffffffffffffffffffffffffffffffffffffffffffffffffffffffffffff8214156133115761331061334d565b5b600182019050919050565b600061332782613224565b915061333283613224565b9250826133425761334161337c565b5b828206905092915050565b7f4e487b7100000000000000000000000000000000000000000000000000000000600052601160045260246000fd5b7f4e487b7100000000000000000000000000000000000000000000000000000000600052601260045260246000fd5b7f4e487b7100000000000000000000000000000000000000000000000000000000600052602260045260246000fd5b7f4e487b7100000000000000000000000000000000000000000000000000000000600052603160045260246000fd5b7f4e487b7100000000000000000000000000000000000000000000000000000000600052603260045260246000fd5b7f4e487b7100000000000000000000000000000000000000000000000000000000600052604160045260246000fd5b600080fd5b600080fd5b600080fd5b600080fd5b6000601f19601f8301169050919050565b7f455243373231456e756d657261626c653a206f776e657220696e646578206f7560008201527f74206f6620626f756e6473000000000000000000000000000000000000000000602082015250565b7f4552433732313a207472616e7366657220746f206e6f6e20455243373231526560008201527f63656976657220696d706c656d656e7465720000000000000000000000000000602082015250565b7f4f776e61626c653a206e6577206f776e657220697320746865207a65726f206160008201527f6464726573730000000000000000000000000000000000000000000000000000602082015250565b7f4552433732313a207472616e736665722066726f6d20696e636f72726563742060008201527f6f776e6572000000000000000000000000000000000000000000000000000000602082015250565b7f4552433732313a20746f6b656e20616c7265616479206d696e74656400000000600082015250565b7f4552433732313a207472616e7366657220746f20746865207a65726f2061646460008201527f7265737300000000000000000000000000000000000000000000000000000000602082015250565b7f4552433732313a20617070726f766520746f2063616c6c657200000000000000600082015250565b7f3c2f746578743e3c2f7376673e00000000000000000000000000000000000000600082015250565b7f5375706572202d00000000000000000000000000000000000000000000000000600082015250565b7f4552433732313a2061646472657373207a65726f206973206e6f74206120766160008201527f6c6964206f776e65720000000000000000000000000000000000000000000000602082015250565b7f227d000000000000000000000000000000000000000000000000000000000000600082015250565b7f4552433732313a20617070726f76652063616c6c6572206973206e6f7420746f60008201527f6b656e206f776e6572206e6f7220617070726f76656420666f7220616c6c0000602082015250565b7f4552433732313a206d696e7420746f20746865207a65726f2061646472657373600082015250565b7f4f776e61626c653a2063616c6c6572206973206e6f7420746865206f776e6572600082015250565b7f4552433732314d657461646174613a2055524920717565727920666f72206e6f60008201527f6e6578697374656e7420746f6b656e0000000000000000000000000000000000602082015250565b7f7b226e616d65223a202200000000000000000000000000000000000000000000600082015250565b7f4552433732313a20696e76616c696420746f6b656e2049440000000000000000600082015250565b7f4552433732313a20617070726f76616c20746f2063757272656e74206f776e6560008201527f7200000000000000000000000000000000000000000000000000000000000000602082015250565b7f646174613a6170706c69636174696f6e2f6a736f6e3b6261736536342c000000600082015250565b50565b7f455243373231456e756d657261626c653a20676c6f62616c20696e646578206f60008201527f7574206f6620626f756e64730000000000000000000000000000000000000000602082015250565b7f222c20226465736372697074696f6e223a20224120686967686c79206163636c60008201527f61696d656420636f6c6c656374696f6e206f66206e756d626572732e222c202260208201527f696d616765223a2022646174613a696d6167652f7376672b786d6c3b6261736560408201527f36342c0000000000000000000000000000000000000000000000000000000000606082015250565b7f4552433732313a2063616c6c6572206973206e6f7420746f6b656e206f776e6560008201527f72206e6f7220617070726f766564000000000000000000000000000000000000602082015250565b613a32816131ba565b8114613a3d57600080fd5b50565b613a49816131cc565b8114613a5457600080fd5b50565b613a60816131d8565b8114613a6b57600080fd5b50565b613a7781613224565b8114613a8257600080fd5b5056fe3c73766720786d6c6e733d27687474703a2f2f7777772e77332e6f72672f323030302f73766727207072657365727665417370656374526174696f3d27784d696e594d696e206d656574272076696577426f783d273020302033353020333530273e3c7374796c653e2e62617365207b2066696c6c3a2077686974653b20666f6e742d66616d696c793a2073657269663b20666f6e742d73697a653a20323470783b207d3c2f7374796c653e3c726563742077696474683d273130302527206865696768743d2731303025272066696c6c3d27626c61636b27202f3e3c7465787420783d273530252720793d273530252720636c6173733d27626173652720646f6d696e616e742d626173656c696e653d276d6964646c652720746578742d616e63686f723d276d6964646c65273e4142434445464748494a4b4c4d4e4f505152535455565758595a6162636465666768696a6b6c6d6e6f707172737475767778797a303132333435363738392b2fa26469706673582212205a8c82ca82851c58c46d936d671b679216cdfba20d55fa614bd6e9162c4c0fa864736f6c63430008070033",
  "linkReferences": {},
  "deployedLinkReferences": {}
}